{
  "contractName": "BloodBank",
  "abi": [
    {
      "inputs": [],
      "stateMutability": "nonpayable",
      "type": "constructor"
    },
    {
      "anonymous": false,
      "inputs": [
        {
          "indexed": false,
          "internalType": "address",
          "name": "admin",
          "type": "address"
        }
      ],
      "name": "AdminLoggedIn",
      "type": "event"
    },
    {
      "anonymous": false,
      "inputs": [
        {
          "indexed": false,
          "internalType": "address",
          "name": "donor",
          "type": "address"
        },
        {
          "indexed": false,
          "internalType": "enum BloodBank.BloodType",
          "name": "bloodType",
          "type": "uint8"
        },
        {
          "indexed": false,
          "internalType": "uint256",
          "name": "amount",
          "type": "uint256"
        }
      ],
      "name": "BloodDonated",
      "type": "event"
    },
    {
      "anonymous": false,
      "inputs": [
        {
          "indexed": false,
          "internalType": "address",
          "name": "patient",
          "type": "address"
        },
        {
          "indexed": false,
          "internalType": "enum BloodBank.BloodType",
          "name": "bloodType",
          "type": "uint8"
        }
      ],
      "name": "BloodRequested",
      "type": "event"
    },
    {
      "anonymous": false,
      "inputs": [
        {
          "indexed": false,
          "internalType": "address",
          "name": "patient",
          "type": "address"
        },
        {
          "components": [
            {
              "internalType": "bool",
              "name": "isResponded",
              "type": "bool"
            },
            {
              "internalType": "enum BloodBank.BloodType",
              "name": "bloodType",
              "type": "uint8"
            },
            {
              "internalType": "uint256",
              "name": "amount",
              "type": "uint256"
            },
            {
              "internalType": "bool",
              "name": "response",
              "type": "bool"
            }
          ],
          "indexed": false,
          "internalType": "struct BloodBank.Request",
          "name": "request",
          "type": "tuple"
        }
      ],
      "name": "BloodRequested",
      "type": "event"
    },
    {
      "anonymous": false,
      "inputs": [
        {
          "indexed": false,
          "internalType": "address",
          "name": "donor",
          "type": "address"
        }
      ],
      "name": "DonorPermissionGranted",
      "type": "event"
    },
    {
      "anonymous": false,
      "inputs": [
        {
          "indexed": false,
          "internalType": "address",
          "name": "donor",
          "type": "address"
        }
      ],
      "name": "DonorPermissionRevoked",
      "type": "event"
    },
    {
      "anonymous": false,
      "inputs": [
        {
          "indexed": false,
          "internalType": "address",
          "name": "donor",
          "type": "address"
        },
        {
          "indexed": false,
          "internalType": "string",
          "name": "name",
          "type": "string"
        },
        {
          "indexed": false,
          "internalType": "enum BloodBank.BloodType",
          "name": "bloodType",
          "type": "uint8"
        }
      ],
      "name": "DonorRegistered",
      "type": "event"
    },
    {
      "anonymous": false,
      "inputs": [
        {
          "indexed": false,
          "internalType": "address",
          "name": "hospital",
          "type": "address"
        },
        {
          "indexed": false,
          "internalType": "string",
          "name": "name",
          "type": "string"
        },
        {
          "indexed": false,
          "internalType": "address",
          "name": "location",
          "type": "address"
        }
      ],
      "name": "HospitalRegistered",
      "type": "event"
    },
    {
      "anonymous": false,
      "inputs": [
        {
          "indexed": false,
          "internalType": "address",
          "name": "patient",
          "type": "address"
        }
      ],
      "name": "PatientPermissionGranted",
      "type": "event"
    },
    {
      "anonymous": false,
      "inputs": [
        {
          "indexed": false,
          "internalType": "address",
          "name": "patient",
          "type": "address"
        }
      ],
      "name": "PatientPermissionRevoked",
      "type": "event"
    },
    {
      "anonymous": false,
      "inputs": [
        {
          "indexed": false,
          "internalType": "address",
          "name": "patient",
          "type": "address"
        },
        {
          "indexed": false,
          "internalType": "string",
          "name": "name",
          "type": "string"
        },
        {
          "indexed": false,
          "internalType": "enum BloodBank.BloodType",
          "name": "bloodType",
          "type": "uint8"
        }
      ],
      "name": "PatientRegistered",
      "type": "event"
    },
    {
      "anonymous": false,
      "inputs": [
        {
          "indexed": false,
          "internalType": "address",
          "name": "patient",
          "type": "address"
        },
        {
          "indexed": false,
          "internalType": "bool",
          "name": "response",
          "type": "bool"
        },
        {
          "indexed": false,
          "internalType": "enum BloodBank.BloodType",
          "name": "bloodType",
          "type": "uint8"
        },
        {
          "indexed": false,
          "internalType": "uint256",
          "name": "amount",
          "type": "uint256"
        }
      ],
      "name": "RequestResponded",
      "type": "event"
    },
    {
      "inputs": [],
      "name": "admin",
      "outputs": [
        {
          "internalType": "address",
          "name": "",
          "type": "address"
        }
      ],
      "stateMutability": "view",
      "type": "function",
      "constant": true
    },
    {
      "inputs": [
        {
          "internalType": "address",
          "name": "",
          "type": "address"
        }
      ],
      "name": "allowedDonors",
      "outputs": [
        {
          "internalType": "bool",
          "name": "",
          "type": "bool"
        }
      ],
      "stateMutability": "view",
      "type": "function",
      "constant": true
    },
    {
      "inputs": [
        {
          "internalType": "address",
          "name": "",
          "type": "address"
        }
      ],
      "name": "allowedPatients",
      "outputs": [
        {
          "internalType": "bool",
          "name": "",
          "type": "bool"
        }
      ],
      "stateMutability": "view",
      "type": "function",
      "constant": true
    },
    {
      "inputs": [
        {
          "internalType": "enum BloodBank.BloodType",
          "name": "",
          "type": "uint8"
        }
      ],
      "name": "bloodInventory",
      "outputs": [
        {
          "internalType": "uint256",
          "name": "",
          "type": "uint256"
        }
      ],
      "stateMutability": "view",
      "type": "function",
      "constant": true
    },
    {
      "inputs": [
        {
          "internalType": "address",
          "name": "",
          "type": "address"
        }
      ],
      "name": "bloodRequests",
      "outputs": [
        {
          "internalType": "bool",
          "name": "",
          "type": "bool"
        }
      ],
      "stateMutability": "view",
      "type": "function",
      "constant": true
    },
    {
      "inputs": [
        {
          "internalType": "uint256",
          "name": "",
          "type": "uint256"
        }
      ],
      "name": "donorAddresses",
      "outputs": [
        {
          "internalType": "address",
          "name": "",
          "type": "address"
        }
      ],
      "stateMutability": "view",
      "type": "function",
      "constant": true
    },
    {
      "inputs": [
        {
          "internalType": "address",
          "name": "",
          "type": "address"
        },
        {
          "internalType": "enum BloodBank.BloodType",
          "name": "",
          "type": "uint8"
        }
      ],
      "name": "donorBalances",
      "outputs": [
        {
          "internalType": "uint256",
          "name": "",
          "type": "uint256"
        }
      ],
      "stateMutability": "view",
      "type": "function",
      "constant": true
    },
    {
      "inputs": [
        {
          "internalType": "address",
          "name": "",
          "type": "address"
        }
      ],
      "name": "donors",
      "outputs": [
        {
          "internalType": "string",
          "name": "name",
          "type": "string"
        },
        {
          "internalType": "enum BloodBank.BloodType",
          "name": "bloodType",
          "type": "uint8"
        },
        {
          "internalType": "bool",
          "name": "isRegistered",
          "type": "bool"
        }
      ],
      "stateMutability": "view",
      "type": "function",
      "constant": true
    },
    {
      "inputs": [
        {
          "internalType": "address",
          "name": "",
          "type": "address"
        }
      ],
      "name": "hospitals",
      "outputs": [
        {
          "internalType": "string",
          "name": "name",
          "type": "string"
        },
        {
          "internalType": "address",
          "name": "location",
          "type": "address"
        },
        {
          "internalType": "bool",
          "name": "isRegistered",
          "type": "bool"
        }
      ],
      "stateMutability": "view",
      "type": "function",
      "constant": true
    },
    {
      "inputs": [
        {
          "internalType": "uint256",
          "name": "",
          "type": "uint256"
        }
      ],
      "name": "patientAddresses",
      "outputs": [
        {
          "internalType": "address",
          "name": "",
          "type": "address"
        }
      ],
      "stateMutability": "view",
      "type": "function",
      "constant": true
    },
    {
      "inputs": [
        {
          "internalType": "address",
          "name": "",
          "type": "address"
        },
        {
          "internalType": "enum BloodBank.BloodType",
          "name": "",
          "type": "uint8"
        },
        {
          "internalType": "uint256",
          "name": "",
          "type": "uint256"
        }
      ],
      "name": "patientRequests",
      "outputs": [
        {
          "internalType": "bool",
          "name": "isResponded",
          "type": "bool"
        },
        {
          "internalType": "enum BloodBank.BloodType",
          "name": "bloodType",
          "type": "uint8"
        },
        {
          "internalType": "uint256",
          "name": "amount",
          "type": "uint256"
        },
        {
          "internalType": "bool",
          "name": "response",
          "type": "bool"
        }
      ],
      "stateMutability": "view",
      "type": "function",
      "constant": true
    },
    {
      "inputs": [
        {
          "internalType": "address",
          "name": "",
          "type": "address"
        },
        {
          "internalType": "uint256",
          "name": "",
          "type": "uint256"
        }
      ],
      "name": "patientResponses",
      "outputs": [
        {
          "internalType": "bool",
          "name": "isResponded",
          "type": "bool"
        },
        {
          "internalType": "enum BloodBank.BloodType",
          "name": "bloodType",
          "type": "uint8"
        },
        {
          "internalType": "uint256",
          "name": "amount",
          "type": "uint256"
        },
        {
          "internalType": "bool",
          "name": "response",
          "type": "bool"
        }
      ],
      "stateMutability": "view",
      "type": "function",
      "constant": true
    },
    {
      "inputs": [
        {
          "internalType": "address",
          "name": "",
          "type": "address"
        }
      ],
      "name": "patients",
      "outputs": [
        {
          "internalType": "string",
          "name": "name",
          "type": "string"
        },
        {
          "internalType": "enum BloodBank.BloodType",
          "name": "bloodType",
          "type": "uint8"
        },
        {
          "internalType": "bool",
          "name": "isRegistered",
          "type": "bool"
        }
      ],
      "stateMutability": "view",
      "type": "function",
      "constant": true
    },
    {
      "inputs": [],
      "name": "totalBloodDonated",
      "outputs": [
        {
          "internalType": "uint256",
          "name": "",
          "type": "uint256"
        }
      ],
      "stateMutability": "view",
      "type": "function",
      "constant": true
    },
    {
      "inputs": [],
      "name": "totalDonors",
      "outputs": [
        {
          "internalType": "uint256",
          "name": "",
          "type": "uint256"
        }
      ],
      "stateMutability": "view",
      "type": "function",
      "constant": true
    },
    {
      "inputs": [],
      "name": "totalHospitals",
      "outputs": [
        {
          "internalType": "uint256",
          "name": "",
          "type": "uint256"
        }
      ],
      "stateMutability": "view",
      "type": "function",
      "constant": true
    },
    {
      "inputs": [],
      "name": "totalPatients",
      "outputs": [
        {
          "internalType": "uint256",
          "name": "",
          "type": "uint256"
        }
      ],
      "stateMutability": "view",
      "type": "function",
      "constant": true
    },
    {
      "inputs": [],
      "name": "adminLogin",
      "outputs": [
        {
          "internalType": "bool",
          "name": "",
          "type": "bool"
        }
      ],
      "stateMutability": "nonpayable",
      "type": "function"
    },
    {
      "inputs": [
        {
          "internalType": "address",
          "name": "donorAddress",
          "type": "address"
        }
      ],
      "name": "grantDonorPermission",
      "outputs": [],
      "stateMutability": "nonpayable",
      "type": "function"
    },
    {
      "inputs": [
        {
          "internalType": "address",
          "name": "donorAddress",
          "type": "address"
        }
      ],
      "name": "revokeDonorPermission",
      "outputs": [],
      "stateMutability": "nonpayable",
      "type": "function"
    },
    {
      "inputs": [
        {
          "internalType": "address",
          "name": "donorAddress",
          "type": "address"
        }
      ],
      "name": "isDonorAllowed",
      "outputs": [
        {
          "internalType": "bool",
          "name": "",
          "type": "bool"
        }
      ],
      "stateMutability": "view",
      "type": "function",
      "constant": true
    },
    {
      "inputs": [
        {
          "internalType": "address",
          "name": "patientAddress",
          "type": "address"
        }
      ],
      "name": "grantPatientPermission",
      "outputs": [],
      "stateMutability": "nonpayable",
      "type": "function"
    },
    {
      "inputs": [
        {
          "internalType": "address",
          "name": "patientAddress",
          "type": "address"
        }
      ],
      "name": "revokePatientPermission",
      "outputs": [],
      "stateMutability": "nonpayable",
      "type": "function"
    },
    {
      "inputs": [
        {
          "internalType": "address",
          "name": "patientAddress",
          "type": "address"
        }
      ],
      "name": "isPatientAllowed",
      "outputs": [
        {
          "internalType": "bool",
          "name": "",
          "type": "bool"
        }
      ],
      "stateMutability": "view",
      "type": "function",
      "constant": true
    },
    {
      "inputs": [
        {
          "internalType": "address",
          "name": "patientAddress",
          "type": "address"
        },
        {
          "internalType": "string",
          "name": "name",
          "type": "string"
        },
        {
          "internalType": "enum BloodBank.BloodType",
          "name": "bloodType",
          "type": "uint8"
        }
      ],
      "name": "addPatient",
      "outputs": [],
      "stateMutability": "nonpayable",
      "type": "function"
    },
    {
      "inputs": [
        {
          "internalType": "address",
          "name": "hospitalAddress",
          "type": "address"
        },
        {
          "internalType": "string",
          "name": "name",
          "type": "string"
        },
        {
          "internalType": "address",
          "name": "location",
          "type": "address"
        }
      ],
      "name": "addHospital",
      "outputs": [],
      "stateMutability": "nonpayable",
      "type": "function"
    },
    {
      "inputs": [
        {
          "internalType": "string",
          "name": "name",
          "type": "string"
        },
        {
          "internalType": "enum BloodBank.BloodType",
          "name": "bloodType",
          "type": "uint8"
        }
      ],
      "name": "registerAsDonor",
      "outputs": [],
      "stateMutability": "nonpayable",
      "type": "function"
    },
    {
      "inputs": [
        {
          "internalType": "string",
          "name": "name",
          "type": "string"
        },
        {
          "internalType": "enum BloodBank.BloodType",
          "name": "bloodType",
          "type": "uint8"
        }
      ],
      "name": "registerAsPatient",
      "outputs": [],
      "stateMutability": "nonpayable",
      "type": "function"
    },
    {
      "inputs": [
        {
          "internalType": "address",
          "name": "hospitalAddress",
          "type": "address"
        }
      ],
      "name": "locateHospitalToDonate",
      "outputs": [
        {
          "internalType": "string",
          "name": "name",
          "type": "string"
        },
        {
          "internalType": "address",
          "name": "location",
          "type": "address"
        }
      ],
      "stateMutability": "view",
      "type": "function",
      "constant": true
    },
    {
      "inputs": [
        {
          "internalType": "enum BloodBank.BloodType",
          "name": "bloodType",
          "type": "uint8"
        },
        {
          "internalType": "uint256",
          "name": "amount",
          "type": "uint256"
        }
      ],
      "name": "donateBlood",
      "outputs": [],
      "stateMutability": "nonpayable",
      "type": "function"
    },
    {
      "inputs": [],
      "name": "getTotalBloodDonated",
      "outputs": [
        {
          "internalType": "uint256",
          "name": "",
          "type": "uint256"
        }
      ],
      "stateMutability": "view",
      "type": "function",
      "constant": true
    },
    {
      "inputs": [
        {
          "internalType": "enum BloodBank.BloodType",
          "name": "bloodType",
          "type": "uint8"
        }
      ],
      "name": "getBloodInventory",
      "outputs": [
        {
          "internalType": "uint256",
          "name": "",
          "type": "uint256"
        }
      ],
      "stateMutability": "view",
      "type": "function",
      "constant": true
    },
    {
      "inputs": [
        {
          "internalType": "enum BloodBank.BloodType",
          "name": "bloodType",
          "type": "uint8"
        },
        {
          "internalType": "uint256",
          "name": "amount",
          "type": "uint256"
        }
      ],
      "name": "requestBlood",
      "outputs": [],
      "stateMutability": "nonpayable",
      "type": "function"
    },
    {
      "inputs": [
        {
          "internalType": "address",
          "name": "patientAddress",
          "type": "address"
        },
        {
          "internalType": "enum BloodBank.BloodType",
          "name": "bloodType",
          "type": "uint8"
        }
      ],
      "name": "getPatientRequests",
      "outputs": [
        {
          "components": [
            {
              "internalType": "bool",
              "name": "isResponded",
              "type": "bool"
            },
            {
              "internalType": "enum BloodBank.BloodType",
              "name": "bloodType",
              "type": "uint8"
            },
            {
              "internalType": "uint256",
              "name": "amount",
              "type": "uint256"
            },
            {
              "internalType": "bool",
              "name": "response",
              "type": "bool"
            }
          ],
          "internalType": "struct BloodBank.Request[]",
          "name": "",
          "type": "tuple[]"
        }
      ],
      "stateMutability": "view",
      "type": "function",
      "constant": true
    },
    {
      "inputs": [
        {
          "internalType": "address",
          "name": "patientAddress",
          "type": "address"
        },
        {
          "internalType": "enum BloodBank.BloodType",
          "name": "bloodType",
          "type": "uint8"
        },
        {
          "internalType": "bool",
          "name": "response",
          "type": "bool"
        }
      ],
      "name": "respondToRequest",
      "outputs": [],
      "stateMutability": "nonpayable",
      "type": "function"
    },
    {
      "inputs": [
        {
          "internalType": "address",
          "name": "patientAddress",
          "type": "address"
        }
      ],
      "name": "getPatientResponses",
      "outputs": [
        {
          "components": [
            {
              "internalType": "bool",
              "name": "isResponded",
              "type": "bool"
            },
            {
              "internalType": "enum BloodBank.BloodType",
              "name": "bloodType",
              "type": "uint8"
            },
            {
              "internalType": "uint256",
              "name": "amount",
              "type": "uint256"
            },
            {
              "internalType": "bool",
              "name": "response",
              "type": "bool"
            }
          ],
          "internalType": "struct BloodBank.Request[]",
          "name": "",
          "type": "tuple[]"
        }
      ],
      "stateMutability": "view",
      "type": "function",
      "constant": true
    },
    {
      "inputs": [],
      "name": "getRegisteredUsers",
      "outputs": [
        {
          "internalType": "address[]",
          "name": "registeredDonors",
          "type": "address[]"
        },
        {
          "internalType": "address[]",
          "name": "registeredPatients",
          "type": "address[]"
        }
      ],
      "stateMutability": "view",
      "type": "function",
      "constant": true
    }
  ],
  "bytecode": "0x608060405234801561001057600080fd5b50336000806101000a81548173ffffffffffffffffffffffffffffffffffffffff021916908373ffffffffffffffffffffffffffffffffffffffff160217905550613ebc806100606000396000f3fe608060405234801561001057600080fd5b50600436106102275760003560e01c806378771fb311610130578063b9de02c0116100b8578063deb5ef091161007c578063deb5ef0914610702578063e7620e7714610720578063f093cf8014610750578063f1744bb114610782578063f851a440146107a057610227565b8063b9de02c01461064a578063ba3e7aae1461067a578063c0bca7df14610696578063ca0cdea8146106b4578063da0b7c10146106e657610227565b80639b0652b4116100ff5780639b0652b4146105825780639b71377f1461059e578063b40f1691146105ce578063b753098b146105fe578063b8a2d4421461061a57610227565b806378771fb3146104fe5780637e4ed03d1461052e578063894b8f0c1461054a578063958b865c1461056657610227565b8063271473d1116101b357806345a7d1c71161018257806345a7d1c7146104335780636d661d53146104635780637073c0721461047f57806375844cd11461049e57806376cd7083146104ce57610227565b8063271473d11461036d5780632b2aee5d1461039d5780632bac19a2146103cd578063440bfe561461040057610227565b80631927b768116101fa5780631927b768146102c65780631e9e2290146102e457806325c302e414610300578063265c30c91461031e57806326838ae31461033c57610227565b806303a14b421461022c578063063da53a146102485780630869cfbc146102645780630a1c8e6814610296575b600080fd5b61024660048036038101906102419190612def565b6107be565b005b610262600480360381019061025d9190612def565b6108dc565b005b61027e60048036038101906102799190612def565b6109fb565b60405161028d939291906138d4565b60405180910390f35b6102b060048036038101906102ab9190612def565b610ac7565b6040516102bd9190613806565b60405180910390f35b6102ce610b1d565b6040516102db9190613a92565b60405180910390f35b6102fe60048036038101906102f99190612e54565b610b23565b005b610308611054565b6040516103159190613a92565b60405180910390f35b61032661105a565b6040516103339190613a92565b60405180910390f35b61035660048036038101906103519190612def565b611060565b604051610364929190613866565b60405180910390f35b61038760048036038101906103829190612def565b61122d565b60405161039491906137e4565b60405180910390f35b6103b760048036038101906103b291906130b5565b611392565b6040516103c49190613671565b60405180910390f35b6103e760048036038101906103e29190612ea3565b6113d1565b6040516103f79493929190613821565b60405180910390f35b61041a60048036038101906104159190612fc0565b611452565b60405161042a9493929190613821565b60405180910390f35b61044d60048036038101906104489190612def565b6114c6565b60405161045a9190613806565b60405180910390f35b61047d60048036038101906104789190613025565b61151c565b005b6104876116da565b6040516104959291906137ad565b60405180910390f35b6104b860048036038101906104b39190612ffc565b6117f9565b6040516104c59190613a92565b60405180910390f35b6104e860048036038101906104e39190612def565b611811565b6040516104f59190613806565b60405180910390f35b61051860048036038101906105139190612e18565b611831565b6040516105259190613a92565b60405180910390f35b61054860048036038101906105439190612def565b611856565b005b610564600480360381019061055f9190613025565b611974565b005b610580600480360381019061057b9190612def565b611c34565b005b61059c60048036038101906105979190613061565b611d53565b005b6105b860048036038101906105b39190612e18565b611f38565b6040516105c591906137e4565b60405180910390f35b6105e860048036038101906105e391906130b5565b61220b565b6040516105f59190613671565b60405180910390f35b61061860048036038101906106139190613061565b61224a565b005b610634600480360381019061062f9190612ffc565b61242f565b6040516106419190613a92565b60405180910390f35b610664600480360381019061065f9190612def565b6124bc565b6040516106719190613806565b60405180910390f35b610694600480360381019061068f9190612ef2565b6124dc565b005b61069e61274c565b6040516106ab9190613806565b60405180910390f35b6106ce60048036038101906106c99190612def565b61278c565b6040516106dd939291906138d4565b60405180910390f35b61070060048036038101906106fb9190612f59565b612858565b005b61070a612af9565b6040516107179190613a92565b60405180910390f35b61073a60048036038101906107359190612def565b612aff565b6040516107479190613806565b60405180910390f35b61076a60048036038101906107659190612def565b612b1f565b60405161077993929190613896565b60405180910390f35b61078a612bfe565b6040516107979190613a92565b60405180910390f35b6107a8612c08565b6040516107b59190613671565b60405180910390f35b600a60008273ffffffffffffffffffffffffffffffffffffffff1673ffffffffffffffffffffffffffffffffffffffff16815260200190815260200160002060009054906101000a900460ff1661084a576040517f08c379a000000000000000000000000000000000000000000000000000000000815260040161084190613a32565b60405180910390fd5b6000600a60008373ffffffffffffffffffffffffffffffffffffffff1673ffffffffffffffffffffffffffffffffffffffff16815260200190815260200160002060006101000a81548160ff0219169083151502179055507f0d75f4177f5c2ba083d1f9ed47e125806407c82e261facc56bfed13d3295f085816040516108d19190613671565b60405180910390a150565b600a60008273ffffffffffffffffffffffffffffffffffffffff1673ffffffffffffffffffffffffffffffffffffffff16815260200190815260200160002060009054906101000a900460ff1615610969576040517f08c379a000000000000000000000000000000000000000000000000000000000815260040161096090613952565b60405180910390fd5b6001600a60008373ffffffffffffffffffffffffffffffffffffffff1673ffffffffffffffffffffffffffffffffffffffff16815260200190815260200160002060006101000a81548160ff0219169083151502179055507f6470588e45881bf48bc4406748c2c44819598eae7041fca47408b90f441242c6816040516109f09190613671565b60405180910390a150565b6008602052806000526040600020600091509050806000018054610a1e90613cd5565b80601f0160208091040260200160405190810160405280929190818152602001828054610a4a90613cd5565b8015610a975780601f10610a6c57610100808354040283529160200191610a97565b820191906000526020600020905b815481529060010190602001808311610a7a57829003601f168201915b5050505050908060010160009054906101000a900460ff16908060010160019054906101000a900460ff16905083565b6000600a60008373ffffffffffffffffffffffffffffffffffffffff1673ffffffffffffffffffffffffffffffffffffffff16815260200190815260200160002060009054906101000a900460ff169050919050565b60045481565b600860008473ffffffffffffffffffffffffffffffffffffffff1673ffffffffffffffffffffffffffffffffffffffff16815260200190815260200160002060010160019054906101000a900460ff16610bb2576040517f08c379a0000000000000000000000000000000000000000000000000000000008152600401610ba9906139d2565b60405180910390fd5b6000600f60008573ffffffffffffffffffffffffffffffffffffffff1673ffffffffffffffffffffffffffffffffffffffff1681526020019081526020016000206000846003811115610c2e577f4e487b7100000000000000000000000000000000000000000000000000000000600052602160045260246000fd5b6003811115610c66577f4e487b7100000000000000000000000000000000000000000000000000000000600052602160045260246000fd5b81526020019081526020016000208054905011610cb8576040517f08c379a0000000000000000000000000000000000000000000000000000000008152600401610caf90613912565b60405180910390fd5b6000600f60008573ffffffffffffffffffffffffffffffffffffffff1673ffffffffffffffffffffffffffffffffffffffff1681526020019081526020016000206000846003811115610d34577f4e487b7100000000000000000000000000000000000000000000000000000000600052602160045260246000fd5b6003811115610d6c577f4e487b7100000000000000000000000000000000000000000000000000000000600052602160045260246000fd5b81526020019081526020016000206001600f60008773ffffffffffffffffffffffffffffffffffffffff1673ffffffffffffffffffffffffffffffffffffffff1681526020019081526020016000206000866003811115610df6577f4e487b7100000000000000000000000000000000000000000000000000000000600052602160045260246000fd5b6003811115610e2e577f4e487b7100000000000000000000000000000000000000000000000000000000600052602160045260246000fd5b815260200190815260200160002080549050610e4a9190613bf2565b81548110610e81577f4e487b7100000000000000000000000000000000000000000000000000000000600052603260045260246000fd5b9060005260206000209060030201905060018160000160006101000a81548160ff021916908315150217905550818160020160006101000a81548160ff021916908315150217905550601060008573ffffffffffffffffffffffffffffffffffffffff1673ffffffffffffffffffffffffffffffffffffffff1681526020019081526020016000208190806001815401808255809150506001900390600052602060002090600302016000909190919091506000820160009054906101000a900460ff168160000160006101000a81548160ff0219169083151502179055506000820160019054906101000a900460ff168160000160016101000a81548160ff02191690836003811115610fbe577f4e487b7100000000000000000000000000000000000000000000000000000000600052602160045260246000fd5b0217905550600182015481600101556002820160009054906101000a900460ff168160020160006101000a81548160ff02191690831515021790555050507f0cb0eecdc646f95300ff59a3649e7f113854102f55590a186a114bdea39a68d884838360000160019054906101000a900460ff168460010154604051611046949392919061368c565b60405180910390a150505050565b60015481565b60035481565b60606000600960008473ffffffffffffffffffffffffffffffffffffffff1673ffffffffffffffffffffffffffffffffffffffff16815260200190815260200160002060010160149054906101000a900460ff166110f3576040517f08c379a00000000000000000000000000000000000000000000000000000000081526004016110ea906139f2565b60405180910390fd5b600960008473ffffffffffffffffffffffffffffffffffffffff1673ffffffffffffffffffffffffffffffffffffffff168152602001908152602001600020600001600960008573ffffffffffffffffffffffffffffffffffffffff1673ffffffffffffffffffffffffffffffffffffffff16815260200190815260200160002060010160009054906101000a900473ffffffffffffffffffffffffffffffffffffffff168180546111a490613cd5565b80601f01602080910402602001604051908101604052809291908181526020018280546111d090613cd5565b801561121d5780601f106111f25761010080835404028352916020019161121d565b820191906000526020600020905b81548152906001019060200180831161120057829003601f168201915b5050505050915091509150915091565b6060601060008373ffffffffffffffffffffffffffffffffffffffff1673ffffffffffffffffffffffffffffffffffffffff168152602001908152602001600020805480602002602001604051908101604052809291908181526020016000905b8282101561138757838290600052602060002090600302016040518060800160405290816000820160009054906101000a900460ff161515151581526020016000820160019054906101000a900460ff166003811115611317577f4e487b7100000000000000000000000000000000000000000000000000000000600052602160045260246000fd5b600381111561134f577f4e487b7100000000000000000000000000000000000000000000000000000000600052602160045260246000fd5b8152602001600182015481526020016002820160009054906101000a900460ff1615151515815250508152602001906001019061128e565b505050509050919050565b600581815481106113a257600080fd5b906000526020600020016000915054906101000a900473ffffffffffffffffffffffffffffffffffffffff1681565b600f60205282600052604060002060205281600052604060002081815481106113f957600080fd5b906000526020600020906003020160009250925050508060000160009054906101000a900460ff16908060000160019054906101000a900460ff16908060010154908060020160009054906101000a900460ff16905084565b6010602052816000526040600020818154811061146e57600080fd5b9060005260206000209060030201600091509150508060000160009054906101000a900460ff16908060000160019054906101000a900460ff16908060010154908060020160009054906101000a900460ff16905084565b6000600b60008373ffffffffffffffffffffffffffffffffffffffff1673ffffffffffffffffffffffffffffffffffffffff16815260200190815260200160002060009054906101000a900460ff169050919050565b600760003373ffffffffffffffffffffffffffffffffffffffff1673ffffffffffffffffffffffffffffffffffffffff16815260200190815260200160002060010160019054906101000a900460ff166115ab576040517f08c379a00000000000000000000000000000000000000000000000000000000081526004016115a290613972565b60405180910390fd5b80600e60003373ffffffffffffffffffffffffffffffffffffffff1673ffffffffffffffffffffffffffffffffffffffff1681526020019081526020016000206000846003811115611626577f4e487b7100000000000000000000000000000000000000000000000000000000600052602160045260246000fd5b600381111561165e577f4e487b7100000000000000000000000000000000000000000000000000000000600052602160045260246000fd5b8152602001908152602001600020600082825461167b9190613b9c565b9250508190555080600460008282546116949190613b9c565b925050819055507fc2f0fc24f51c0d69bcb224db3f20a529782afccd9cf749ccf983ae933ed08b813383836040516116ce939291906136d1565b60405180910390a15050565b606080600560068180548060200260200160405190810160405280929190818152602001828054801561176257602002820191906000526020600020905b8160009054906101000a900473ffffffffffffffffffffffffffffffffffffffff1673ffffffffffffffffffffffffffffffffffffffff1681526020019060010190808311611718575b50505050509150808054806020026020016040519081016040528092919081815260200182805480156117ea57602002820191906000526020600020905b8160009054906101000a900473ffffffffffffffffffffffffffffffffffffffff1673ffffffffffffffffffffffffffffffffffffffff16815260200190600101908083116117a0575b50505050509050915091509091565b600d6020528060005260406000206000915090505481565b600a6020528060005260406000206000915054906101000a900460ff1681565b600e602052816000526040600020602052806000526040600020600091509150505481565b600b60008273ffffffffffffffffffffffffffffffffffffffff1673ffffffffffffffffffffffffffffffffffffffff16815260200190815260200160002060009054906101000a900460ff166118e2576040517f08c379a00000000000000000000000000000000000000000000000000000000081526004016118d990613a12565b60405180910390fd5b6000600b60008373ffffffffffffffffffffffffffffffffffffffff1673ffffffffffffffffffffffffffffffffffffffff16815260200190815260200160002060006101000a81548160ff0219169083151502179055507f50b4f48c2b29bd3719894342dd2c27e3890b43d1fd5353022887ba15c8a8cf3e816040516119699190613671565b60405180910390a150565b600860003373ffffffffffffffffffffffffffffffffffffffff1673ffffffffffffffffffffffffffffffffffffffff16815260200190815260200160002060010160019054906101000a900460ff16611a03576040517f08c379a00000000000000000000000000000000000000000000000000000000081526004016119fa906139b2565b60405180910390fd5b60006040518060800160405280600015158152602001846003811115611a52577f4e487b7100000000000000000000000000000000000000000000000000000000600052602160045260246000fd5b8152602001838152602001600015158152509050600f60003373ffffffffffffffffffffffffffffffffffffffff1673ffffffffffffffffffffffffffffffffffffffff168152602001908152602001600020600082602001516003811115611ae4577f4e487b7100000000000000000000000000000000000000000000000000000000600052602160045260246000fd5b6003811115611b1c577f4e487b7100000000000000000000000000000000000000000000000000000000600052602160045260246000fd5b815260200190815260200160002081908060018154018082558091505060019003906000526020600020906003020160009091909190915060008201518160000160006101000a81548160ff02191690831515021790555060208201518160000160016101000a81548160ff02191690836003811115611bc5577f4e487b7100000000000000000000000000000000000000000000000000000000600052602160045260246000fd5b02179055506040820151816001015560608201518160020160006101000a81548160ff02191690831515021790555050507fe0fd22686cb831b16f1f01cedcbd518d72c259a8bd2bca74f4ffe066159b783f3382604051611c27929190613784565b60405180910390a1505050565b600b60008273ffffffffffffffffffffffffffffffffffffffff1673ffffffffffffffffffffffffffffffffffffffff16815260200190815260200160002060009054906101000a900460ff1615611cc1576040517f08c379a0000000000000000000000000000000000000000000000000000000008152600401611cb890613a52565b60405180910390fd5b6001600b60008373ffffffffffffffffffffffffffffffffffffffff1673ffffffffffffffffffffffffffffffffffffffff16815260200190815260200160002060006101000a81548160ff0219169083151502179055507f173926a5cd76513113da8c73e33cd759abb380c3fa117a8e50bbe24fd69e71b181604051611d489190613671565b60405180910390a150565b6040518060600160405280838152602001826003811115611d9d577f4e487b7100000000000000000000000000000000000000000000000000000000600052602160045260246000fd5b815260200160011515815250600760003373ffffffffffffffffffffffffffffffffffffffff1673ffffffffffffffffffffffffffffffffffffffff1681526020019081526020016000206000820151816000019080519060200190611e04929190612c2c565b5060208201518160010160006101000a81548160ff02191690836003811115611e56577f4e487b7100000000000000000000000000000000000000000000000000000000600052602160045260246000fd5b021790555060408201518160010160016101000a81548160ff0219169083151502179055509050506005339080600181540180825580915050600190039060005260206000200160009091909190916101000a81548173ffffffffffffffffffffffffffffffffffffffff021916908373ffffffffffffffffffffffffffffffffffffffff16021790555060016000815480929190611ef490613d07565b91905055507f779163cb568883acd4f53ecd8b9b240d9167817266c43fa521301a32e8fd290b338383604051611f2c93929190613746565b60405180910390a15050565b60606000600f60008573ffffffffffffffffffffffffffffffffffffffff1673ffffffffffffffffffffffffffffffffffffffff1681526020019081526020016000206000846003811115611fb6577f4e487b7100000000000000000000000000000000000000000000000000000000600052602160045260246000fd5b6003811115611fee577f4e487b7100000000000000000000000000000000000000000000000000000000600052602160045260246000fd5b815260200190815260200160002090506000818054905067ffffffffffffffff811115612044577f4e487b7100000000000000000000000000000000000000000000000000000000600052604160045260246000fd5b60405190808252806020026020018201604052801561207d57816020015b61206a612cb2565b8152602001906001900390816120625790505b50905060005b82805490508110156121ff578281815481106120c8577f4e487b7100000000000000000000000000000000000000000000000000000000600052603260045260246000fd5b90600052602060002090600302016040518060800160405290816000820160009054906101000a900460ff161515151581526020016000820160019054906101000a900460ff166003811115612147577f4e487b7100000000000000000000000000000000000000000000000000000000600052602160045260246000fd5b600381111561217f577f4e487b7100000000000000000000000000000000000000000000000000000000600052602160045260246000fd5b8152602001600182015481526020016002820160009054906101000a900460ff1615151515815250508282815181106121e1577f4e487b7100000000000000000000000000000000000000000000000000000000600052603260045260246000fd5b602002602001018190525080806121f790613d07565b915050612083565b50809250505092915050565b6006818154811061221b57600080fd5b906000526020600020016000915054906101000a900473ffffffffffffffffffffffffffffffffffffffff1681565b6040518060600160405280838152602001826003811115612294577f4e487b7100000000000000000000000000000000000000000000000000000000600052602160045260246000fd5b815260200160011515815250600860003373ffffffffffffffffffffffffffffffffffffffff1673ffffffffffffffffffffffffffffffffffffffff16815260200190815260200160002060008201518160000190805190602001906122fb929190612c2c565b5060208201518160010160006101000a81548160ff0219169083600381111561234d577f4e487b7100000000000000000000000000000000000000000000000000000000600052602160045260246000fd5b021790555060408201518160010160016101000a81548160ff0219169083151502179055509050506006339080600181540180825580915050600190039060005260206000200160009091909190916101000a81548173ffffffffffffffffffffffffffffffffffffffff021916908373ffffffffffffffffffffffffffffffffffffffff160217905550600260008154809291906123eb90613d07565b91905055507fd0279fc6af44cae89320e43efb9a695b3185662c6ada09288e9d440caa4543a633838360405161242393929190613746565b60405180910390a15050565b6000600d600083600381111561246e577f4e487b7100000000000000000000000000000000000000000000000000000000600052602160045260246000fd5b60038111156124a6577f4e487b7100000000000000000000000000000000000000000000000000000000600052602160045260246000fd5b8152602001908152602001600020549050919050565b600b6020528060005260406000206000915054906101000a900460ff1681565b60008054906101000a900473ffffffffffffffffffffffffffffffffffffffff1673ffffffffffffffffffffffffffffffffffffffff163373ffffffffffffffffffffffffffffffffffffffff161461256a576040517f08c379a000000000000000000000000000000000000000000000000000000000815260040161256190613932565b60405180910390fd5b600960008473ffffffffffffffffffffffffffffffffffffffff1673ffffffffffffffffffffffffffffffffffffffff16815260200190815260200160002060010160149054906101000a900460ff16156125fa576040517f08c379a00000000000000000000000000000000000000000000000000000000081526004016125f190613a72565b60405180910390fd5b60405180606001604052808381526020018273ffffffffffffffffffffffffffffffffffffffff16815260200160011515815250600960008573ffffffffffffffffffffffffffffffffffffffff1673ffffffffffffffffffffffffffffffffffffffff1681526020019081526020016000206000820151816000019080519060200190612689929190612c2c565b5060208201518160010160006101000a81548173ffffffffffffffffffffffffffffffffffffffff021916908373ffffffffffffffffffffffffffffffffffffffff16021790555060408201518160010160146101000a81548160ff0219169083151502179055509050506003600081548092919061270790613d07565b91905055507fa2c0805b2d96cb9d515bef0880a6f601672ee7dd7b3f3b29e86c9b552e4661c883838360405161273f93929190613708565b60405180910390a1505050565b60007fb59f440754e07ccf4f8158d21ab17643d0854c21b74aaffee912ad01931b22833360405161277d9190613671565b60405180910390a16001905090565b60076020528060005260406000206000915090508060000180546127af90613cd5565b80601f01602080910402602001604051908101604052809291908181526020018280546127db90613cd5565b80156128285780601f106127fd57610100808354040283529160200191612828565b820191906000526020600020905b81548152906001019060200180831161280b57829003601f168201915b5050505050908060010160009054906101000a900460ff16908060010160019054906101000a900460ff16905083565b60008054906101000a900473ffffffffffffffffffffffffffffffffffffffff1673ffffffffffffffffffffffffffffffffffffffff163373ffffffffffffffffffffffffffffffffffffffff16146128e6576040517f08c379a00000000000000000000000000000000000000000000000000000000081526004016128dd90613932565b60405180910390fd5b600860008473ffffffffffffffffffffffffffffffffffffffff1673ffffffffffffffffffffffffffffffffffffffff16815260200190815260200160002060010160019054906101000a900460ff1615612976576040517f08c379a000000000000000000000000000000000000000000000000000000000815260040161296d90613992565b60405180910390fd5b60405180606001604052808381526020018260038111156129c0577f4e487b7100000000000000000000000000000000000000000000000000000000600052602160045260246000fd5b815260200160011515815250600860008573ffffffffffffffffffffffffffffffffffffffff1673ffffffffffffffffffffffffffffffffffffffff1681526020019081526020016000206000820151816000019080519060200190612a27929190612c2c565b5060208201518160010160006101000a81548160ff02191690836003811115612a79577f4e487b7100000000000000000000000000000000000000000000000000000000600052602160045260246000fd5b021790555060408201518160010160016101000a81548160ff02191690831515021790555090505060026000815480929190612ab490613d07565b91905055507fd0279fc6af44cae89320e43efb9a695b3185662c6ada09288e9d440caa4543a6838383604051612aec93929190613746565b60405180910390a1505050565b60025481565b600c6020528060005260406000206000915054906101000a900460ff1681565b6009602052806000526040600020600091509050806000018054612b4290613cd5565b80601f0160208091040260200160405190810160405280929190818152602001828054612b6e90613cd5565b8015612bbb5780601f10612b9057610100808354040283529160200191612bbb565b820191906000526020600020905b815481529060010190602001808311612b9e57829003601f168201915b5050505050908060010160009054906101000a900473ffffffffffffffffffffffffffffffffffffffff16908060010160149054906101000a900460ff16905083565b6000600454905090565b60008054906101000a900473ffffffffffffffffffffffffffffffffffffffff1681565b828054612c3890613cd5565b90600052602060002090601f016020900481019282612c5a5760008555612ca1565b82601f10612c7357805160ff1916838001178555612ca1565b82800160010185558215612ca1579182015b82811115612ca0578251825591602001919060010190612c85565b5b509050612cae9190612d16565b5090565b604051806080016040528060001515815260200160006003811115612d00577f4e487b7100000000000000000000000000000000000000000000000000000000600052602160045260246000fd5b8152602001600081526020016000151581525090565b5b80821115612d2f576000816000905550600101612d17565b5090565b6000612d46612d4184613ade565b613aad565b905082815260208101848484011115612d5e57600080fd5b612d69848285613c93565b509392505050565b600081359050612d8081613e31565b92915050565b600081359050612d9581613e48565b92915050565b600081359050612daa81613e5f565b92915050565b600082601f830112612dc157600080fd5b8135612dd1848260208601612d33565b91505092915050565b600081359050612de981613e6f565b92915050565b600060208284031215612e0157600080fd5b6000612e0f84828501612d71565b91505092915050565b60008060408385031215612e2b57600080fd5b6000612e3985828601612d71565b9250506020612e4a85828601612d9b565b9150509250929050565b600080600060608486031215612e6957600080fd5b6000612e7786828701612d71565b9350506020612e8886828701612d9b565b9250506040612e9986828701612d86565b9150509250925092565b600080600060608486031215612eb857600080fd5b6000612ec686828701612d71565b9350506020612ed786828701612d9b565b9250506040612ee886828701612dda565b9150509250925092565b600080600060608486031215612f0757600080fd5b6000612f1586828701612d71565b935050602084013567ffffffffffffffff811115612f3257600080fd5b612f3e86828701612db0565b9250506040612f4f86828701612d71565b9150509250925092565b600080600060608486031215612f6e57600080fd5b6000612f7c86828701612d71565b935050602084013567ffffffffffffffff811115612f9957600080fd5b612fa586828701612db0565b9250506040612fb686828701612d9b565b9150509250925092565b60008060408385031215612fd357600080fd5b6000612fe185828601612d71565b9250506020612ff285828601612dda565b9150509250929050565b60006020828403121561300e57600080fd5b600061301c84828501612d9b565b91505092915050565b6000806040838503121561303857600080fd5b600061304685828601612d9b565b925050602061305785828601612dda565b9150509250929050565b6000806040838503121561307457600080fd5b600083013567ffffffffffffffff81111561308e57600080fd5b61309a85828601612db0565b92505060206130ab85828601612d9b565b9150509250929050565b6000602082840312156130c757600080fd5b60006130d584828501612dda565b91505092915050565b60006130ea838361310e565b60208301905092915050565b600061310283836135a9565b60808301905092915050565b61311781613c26565b82525050565b61312681613c26565b82525050565b600061313782613b2e565b6131418185613b69565b935061314c83613b0e565b8060005b8381101561317d57815161316488826130de565b975061316f83613b4f565b925050600181019050613150565b5085935050505092915050565b600061319582613b39565b61319f8185613b7a565b93506131aa83613b1e565b8060005b838110156131db5781516131c288826130f6565b97506131cd83613b5c565b9250506001810190506131ae565b5085935050505092915050565b6131f181613c38565b82525050565b61320081613c38565b82525050565b61320f81613c81565b82525050565b61321e81613c81565b82525050565b600061322f82613b44565b6132398185613b8b565b9350613249818560208601613ca2565b61325281613e0c565b840191505092915050565b600061326a601f83613b8b565b91507f4e6f20626c6f6f6420646f6e6174696f6e207265717565737420666f756e64006000830152602082019050919050565b60006132aa602683613b8b565b91507f4f6e6c79207468652061646d696e2063616e20706572666f726d20746869732060008301527f616374696f6e00000000000000000000000000000000000000000000000000006020830152604082019050919050565b6000613310601c83613b8b565b91507f446f6e6f7220616c726561647920686173207065726d697373696f6e000000006000830152602082019050919050565b6000613350601483613b8b565b91507f446f6e6f72206e6f7420726567697374657265640000000000000000000000006000830152602082019050919050565b6000613390601a83613b8b565b91507f50617469656e7420616c726561647920726567697374657265640000000000006000830152602082019050919050565b60006133d0602783613b8b565b91507f596f75206e65656420746f20726567697374657220617320612070617469656e60008301527f74206669727374000000000000000000000000000000000000000000000000006020830152604082019050919050565b6000613436601683613b8b565b91507f50617469656e74206e6f742072656769737465726564000000000000000000006000830152602082019050919050565b6000613476601783613b8b565b91507f486f73706974616c206e6f7420726567697374657265640000000000000000006000830152602082019050919050565b60006134b6602083613b8b565b91507f50617469656e7420646f6573206e6f742068617665207065726d697373696f6e6000830152602082019050919050565b60006134f6601e83613b8b565b91507f446f6e6f7220646f6573206e6f742068617665207065726d697373696f6e00006000830152602082019050919050565b6000613536601e83613b8b565b91507f50617469656e7420616c726561647920686173207065726d697373696f6e00006000830152602082019050919050565b6000613576601b83613b8b565b91507f486f73706974616c20616c7265616479207265676973746572656400000000006000830152602082019050919050565b6080820160008201516135bf60008501826131e8565b5060208201516135d26020850182613206565b5060408201516135e56040850182613653565b5060608201516135f860608501826131e8565b50505050565b60808201600082015161361460008501826131e8565b5060208201516136276020850182613206565b50604082015161363a6040850182613653565b50606082015161364d60608501826131e8565b50505050565b61365c81613c77565b82525050565b61366b81613c77565b82525050565b6000602082019050613686600083018461311d565b92915050565b60006080820190506136a1600083018761311d565b6136ae60208301866131f7565b6136bb6040830185613215565b6136c86060830184613662565b95945050505050565b60006060820190506136e6600083018661311d565b6136f36020830185613215565b6137006040830184613662565b949350505050565b600060608201905061371d600083018661311d565b818103602083015261372f8185613224565b905061373e604083018461311d565b949350505050565b600060608201905061375b600083018661311d565b818103602083015261376d8185613224565b905061377c6040830184613215565b949350505050565b600060a082019050613799600083018561311d565b6137a660208301846135fe565b9392505050565b600060408201905081810360008301526137c7818561312c565b905081810360208301526137db818461312c565b90509392505050565b600060208201905081810360008301526137fe818461318a565b905092915050565b600060208201905061381b60008301846131f7565b92915050565b600060808201905061383660008301876131f7565b6138436020830186613215565b6138506040830185613662565b61385d60608301846131f7565b95945050505050565b600060408201905081810360008301526138808185613224565b905061388f602083018461311d565b9392505050565b600060608201905081810360008301526138b08186613224565b90506138bf602083018561311d565b6138cc60408301846131f7565b949350505050565b600060608201905081810360008301526138ee8186613224565b90506138fd6020830185613215565b61390a60408301846131f7565b949350505050565b6000602082019050818103600083015261392b8161325d565b9050919050565b6000602082019050818103600083015261394b8161329d565b9050919050565b6000602082019050818103600083015261396b81613303565b9050919050565b6000602082019050818103600083015261398b81613343565b9050919050565b600060208201905081810360008301526139ab81613383565b9050919050565b600060208201905081810360008301526139cb816133c3565b9050919050565b600060208201905081810360008301526139eb81613429565b9050919050565b60006020820190508181036000830152613a0b81613469565b9050919050565b60006020820190508181036000830152613a2b816134a9565b9050919050565b60006020820190508181036000830152613a4b816134e9565b9050919050565b60006020820190508181036000830152613a6b81613529565b9050919050565b60006020820190508181036000830152613a8b81613569565b9050919050565b6000602082019050613aa76000830184613662565b92915050565b6000604051905081810181811067ffffffffffffffff82111715613ad457613ad3613ddd565b5b8060405250919050565b600067ffffffffffffffff821115613af957613af8613ddd565b5b601f19601f8301169050602081019050919050565b6000819050602082019050919050565b6000819050602082019050919050565b600081519050919050565b600081519050919050565b600081519050919050565b6000602082019050919050565b6000602082019050919050565b600082825260208201905092915050565b600082825260208201905092915050565b600082825260208201905092915050565b6000613ba782613c77565b9150613bb283613c77565b9250827fffffffffffffffffffffffffffffffffffffffffffffffffffffffffffffffff03821115613be757613be6613d50565b5b828201905092915050565b6000613bfd82613c77565b9150613c0883613c77565b925082821015613c1b57613c1a613d50565b5b828203905092915050565b6000613c3182613c57565b9050919050565b60008115159050919050565b6000819050613c5282613e1d565b919050565b600073ffffffffffffffffffffffffffffffffffffffff82169050919050565b6000819050919050565b6000613c8c82613c44565b9050919050565b82818337600083830152505050565b60005b83811015613cc0578082015181840152602081019050613ca5565b83811115613ccf576000848401525b50505050565b60006002820490506001821680613ced57607f821691505b60208210811415613d0157613d00613dae565b5b50919050565b6000613d1282613c77565b91507fffffffffffffffffffffffffffffffffffffffffffffffffffffffffffffffff821415613d4557613d44613d50565b5b600182019050919050565b7f4e487b7100000000000000000000000000000000000000000000000000000000600052601160045260246000fd5b7f4e487b7100000000000000000000000000000000000000000000000000000000600052602160045260246000fd5b7f4e487b7100000000000000000000000000000000000000000000000000000000600052602260045260246000fd5b7f4e487b7100000000000000000000000000000000000000000000000000000000600052604160045260246000fd5b6000601f19601f8301169050919050565b60048110613e2e57613e2d613d7f565b5b50565b613e3a81613c26565b8114613e4557600080fd5b50565b613e5181613c38565b8114613e5c57600080fd5b50565b60048110613e6c57600080fd5b50565b613e7881613c77565b8114613e8357600080fd5b5056fea2646970667358221220a7dbe84ba6186e3dd74c797e35d4ff15218e54e12ab6f7486c782fd32bd75ca164736f6c63430008000033",
  "immutableReferences": {},
  "source": "// SPDX-License-Identifier: MIT\npragma solidity ^0.8.0;\n\ncontract BloodBank {\n    address public admin;\n    uint public totalDonors;\n    uint public totalPatients;\n    uint public totalHospitals;\n    uint public totalBloodDonated;\n\n    address[] public donorAddresses;\n    address[] public patientAddresses;\n\n    enum BloodType {\n        A,\n        B,\n        AB,\n        O\n    }\n\n    struct Donor {\n        string name;\n        BloodType bloodType;\n        bool isRegistered;\n    }\n\n    struct Patient {\n        string name;\n        BloodType bloodType;\n        bool isRegistered;\n    }\n\n    struct Hospital {\n        string name;\n        address location;\n        bool isRegistered;\n    }\n\n    struct Request {\n        bool isResponded;\n        BloodType bloodType;\n        uint amount;\n        bool response;\n    }\n\n    mapping(address => Donor) public donors;\n    mapping(address => Patient) public patients;\n    mapping(address => Hospital) public hospitals;\n    mapping(address => bool) public allowedDonors;\n    mapping(address => bool) public allowedPatients;\n    mapping(address => bool) public bloodRequests;\n    mapping(BloodType => uint) public bloodInventory;\n    mapping(address => mapping(BloodType => uint)) public donorBalances;\n    mapping(address => mapping(BloodType => Request[])) public patientRequests;\n    mapping(address => Request[]) public patientResponses; // Add mapping to store responses\n\n    event AdminLoggedIn(address admin);\n    event DonorRegistered(address donor, string name, BloodType bloodType);\n    event PatientRegistered(address patient, string name, BloodType bloodType);\n    event HospitalRegistered(address hospital, string name, address location);\n    event BloodDonated(address donor, BloodType bloodType, uint amount);\n    event BloodRequested(address patient, BloodType bloodType);\n    event DonorPermissionGranted(address donor);\n    event DonorPermissionRevoked(address donor);\n    event PatientPermissionGranted(address patient);\n    event PatientPermissionRevoked(address patient);\n    event RequestResponded(\n        address patient,\n        bool response,\n        BloodType bloodType,\n        uint amount\n    );\n    event BloodRequested(address patient, Request request);\n\n    modifier isAdmin() {\n        require(msg.sender == admin, \"Only the admin can perform this action\");\n        _;\n    }\n    modifier onlyAdminOrPatient() {\n        require(\n            msg.sender == admin || allowedPatients[msg.sender],\n            \"Permission denied\"\n        );\n        _;\n    }\n\n    constructor() {\n        admin = msg.sender;\n    }\n\n    function adminLogin() public returns (bool) {\n        emit AdminLoggedIn(msg.sender);\n        return true;\n    }\n\n    function grantDonorPermission(address donorAddress) public {\n        require(!allowedDonors[donorAddress], \"Donor already has permission\");\n        allowedDonors[donorAddress] = true;\n        emit DonorPermissionGranted(donorAddress);\n    }\n\n    function revokeDonorPermission(address donorAddress) public {\n        require(allowedDonors[donorAddress], \"Donor does not have permission\");\n        allowedDonors[donorAddress] = false;\n        emit DonorPermissionRevoked(donorAddress);\n    }\n\n    function isDonorAllowed(address donorAddress) public view returns (bool) {\n        return allowedDonors[donorAddress];\n    }\n\n    function grantPatientPermission(address patientAddress) public {\n        require(\n            !allowedPatients[patientAddress],\n            \"Patient already has permission\"\n        );\n        allowedPatients[patientAddress] = true;\n        emit PatientPermissionGranted(patientAddress);\n    }\n\n    function revokePatientPermission(address patientAddress) public {\n        require(\n            allowedPatients[patientAddress],\n            \"Patient does not have permission\"\n        );\n        allowedPatients[patientAddress] = false;\n        emit PatientPermissionRevoked(patientAddress);\n    }\n\n    function isPatientAllowed(\n        address patientAddress\n    ) public view returns (bool) {\n        return allowedPatients[patientAddress];\n    }\n\n    function addPatient(\n        address patientAddress,\n        string memory name,\n        BloodType bloodType\n    ) public isAdmin {\n        require(\n            !patients[patientAddress].isRegistered,\n            \"Patient already registered\"\n        );\n        patients[patientAddress] = Patient(name, bloodType, true);\n        totalPatients++;\n        emit PatientRegistered(patientAddress, name, bloodType);\n    }\n\n    function addHospital(\n        address hospitalAddress,\n        string memory name,\n        address location\n    ) public isAdmin {\n        require(\n            !hospitals[hospitalAddress].isRegistered,\n            \"Hospital already registered\"\n        );\n        hospitals[hospitalAddress] = Hospital(name, location, true);\n        totalHospitals++;\n        emit HospitalRegistered(hospitalAddress, name, location);\n    }\n\n    function registerAsDonor(string memory name, BloodType bloodType) public {\n        donors[msg.sender] = Donor(name, bloodType, true);\n        donorAddresses.push(msg.sender);\n        totalDonors++;\n        emit DonorRegistered(msg.sender, name, bloodType);\n    }\n\n    function registerAsPatient(string memory name, BloodType bloodType) public {\n        patients[msg.sender] = Patient(name, bloodType, true);\n        patientAddresses.push(msg.sender);\n        totalPatients++;\n        emit PatientRegistered(msg.sender, name, bloodType);\n    }\n\n    function locateHospitalToDonate(\n        address hospitalAddress\n    ) public view returns (string memory name, address location) {\n        require(\n            hospitals[hospitalAddress].isRegistered,\n            \"Hospital not registered\"\n        );\n        return (\n            hospitals[hospitalAddress].name,\n            hospitals[hospitalAddress].location\n        );\n    }\n\n    function donateBlood(BloodType bloodType, uint amount) public {\n        require(donors[msg.sender].isRegistered, \"Donor not registered\");\n        // Assuming a simplified storage for blood donation amounts\n        donorBalances[msg.sender][bloodType] += amount;\n        totalBloodDonated += amount; // Increment the total blood donated\n        emit BloodDonated(msg.sender, bloodType, amount);\n    }\n\n    // Function to get the total amount of blood donated\n    function getTotalBloodDonated() public view returns (uint) {\n        return totalBloodDonated;\n    }\n\n    // Function to get the blood inventory for a specific blood type\n    function getBloodInventory(BloodType bloodType) public view returns (uint) {\n        return bloodInventory[bloodType];\n    }\n\n    function requestBlood(BloodType bloodType, uint amount) public {\n        require(\n            patients[msg.sender].isRegistered,\n            \"You need to register as a patient first\"\n        );\n        // Create a new request object\n        Request memory newRequest = Request({\n            isResponded: false,\n            bloodType: bloodType,\n            amount: amount,\n            response: false\n        });\n        // Add the request to the patient's requests\n        patientRequests[msg.sender][newRequest.bloodType].push(newRequest);\n        // Emit blood request event with the entire request object\n        emit BloodRequested(msg.sender, newRequest);\n    }\n\n    function getPatientRequests(\n        address patientAddress,\n        BloodType bloodType\n    ) public view returns (Request[] memory) {\n        Request[] storage requests = patientRequests[patientAddress][bloodType];\n        Request[] memory result = new Request[](requests.length);\n        for (uint i = 0; i < requests.length; i++) {\n            result[i] = requests[i];\n        }\n        return result;\n    }\n\n    function respondToRequest(\n        address patientAddress,\n        BloodType bloodType,\n        bool response\n    ) public {\n        require(\n            patients[patientAddress].isRegistered,\n            \"Patient not registered\"\n        );\n        require(\n            patientRequests[patientAddress][bloodType].length > 0,\n            \"No blood donation request found\"\n        );\n\n        // Get the last request made by the patient\n        Request storage lastRequest = patientRequests[patientAddress][\n            bloodType\n        ][patientRequests[patientAddress][bloodType].length - 1];\n\n        // Update the response for the last request\n        lastRequest.isResponded = true;\n        lastRequest.response = response;\n\n        // Store the response\n        patientResponses[patientAddress].push(lastRequest);\n\n        // Emit event for responding to blood donation request\n        emit RequestResponded(\n            patientAddress,\n            response,\n            lastRequest.bloodType,\n            lastRequest.amount\n        );\n    }\n\n    // Add a function to retrieve patient responses\n    function getPatientResponses(\n        address patientAddress\n    ) public view returns (Request[] memory) {\n        return patientResponses[patientAddress];\n    }\n\n    function getRegisteredUsers()\n        public\n        view\n        returns (\n            address[] memory registeredDonors,\n            address[] memory registeredPatients\n        )\n    {\n        return (donorAddresses, patientAddresses);\n    }\n}\n",
  "sourcePath": "C:\\Users\\Nikhil Idlgave\\Downloads\\Blood-Bank-Using-Blockchain-main\\contracts\\BloodBank.sol",
  "compiler": {
    "name": "solc",
    "version": "0.8.0+commit.c7dfd78e.Emscripten.clang"
  },
  "schemaVersion": "3.4.16",
  "updatedAt": "2025-02-08T07:05:19.590Z",
  "networkType": "ethereum",
  "devdoc": {
    "kind": "dev",
    "methods": {},
    "version": 1
  },
  "userdoc": {
    "kind": "user",
    "methods": {},
    "version": 1
  }
}